:100000000C9434000C9449000C9449000C94490061
:100010000C9449000C9449000C9449000C9449003C
:100020000C9449000C9449000C9449000C9449002C
:100030000C9449000C9449000C9449000C9449001C
:100040000C9449000C9449000C9449000C9449000C
:100050000C9449000C947C000C9449000C944900C9
:100060000C9449000C94490011241FBECFEFD8E036
:10007000DEBFCDBF11E0A0E0B1E0E8E6F2E002C0F3
:1000800005900D92A230B107D9F70E946B000C9435
:1000900032010C940000F894E1E6F0E080E88083FF
:1000A00084E0808360E470E081E00E94B9001092F7
:1000B000C10078940895ECE7F0E0108280818766B3
:1000C0008083EAE7F0E0108280818E6880838081FF
:1000D0008064808308950E944B000E945B008091A1
:1000E0000001909101010E9413018FE99FE00197A7
:1000F000F1F700C00000F3CF1F920F920FB60F92DE
:1001000011242F933F934F936F937F938F939F93DC
:10011000AF93BF93EF93FF934091790088EE93E004
:10012000489F9001499F300D1124A1E8B0E80E943A
:100130002301880F892F881F990B919588519C4F17
:100140009093010180930001EAE7F0E080818064F0
:100150008083FF91EF91BF91AF919F918F917F919C
:100160006F914F913F912F910F900FBE0F901F9065
:10017000189594B1926094B9E0E8F0E090819F7393
:100180009083813021F48081806C808305C0E0E819
:10019000F0E0808180688083E0E8F0E08081826028
:1001A0008083E1E8F0E08081886180838FE19EE4D4
:1001B000909387008093860060347105E1F038F4F5
:1001C0006130710561F06830710579F026C0611504
:1001D00081E07807B1F061157440C9F01EC0E1E814
:1001E000F0E08081816080830895E1E8F0E0808123
:1001F000826080830895E1E8F0E0808183608083FD
:100200000895E1E8F0E08081846080830895E1E86A
:10021000F0E08081856080830895E1E8F0E08081EE
:10022000826080830895209186003091870028178E
:10023000390720F48091860090918700909389007F
:10024000809388000895A29FB001B39FC001A39F2F
:10025000700D811D1124911DB29F700D811D1124FF
:08026000911D0895F894FFCFF1
:02026800E803A9
:00000001FF
