S00F00005072654C6162352E73726563AA
S11300000C9434000C9446000C9446000C94460066
S11300100C9446000C9446000C9446000C94460044
S11300200C9446000C9446000C9446000C94460034
S11300300C9446000C9446000C9446000C94460024
S11300400C9446000C9446000C9446000C94460014
S11300500C9446000C946D000C9446000C944600DD
S11300600C9446000C94460011241FBECFEFD8E038
S1130070DEBFCDBF21E0A0E0B1E001C01D92A330FE
S1130080B207E1F70E9468000C9437010C94000059
S1130090F894E1E6F0E080E8808384E0808360E423
S11300A070E080E00E94B0001092C100789408953E
S11300B0ECE7F0E01082808187668083EAE7F0E075
S11300C0108280818E68808380818064808308951B
S11300D00E9448000E945800FFCF1F920F920FB653
S11300E00F9211242F933F934F935F936F937F93BA
S11300F08F939F93AF93BF93EF93FF938091790076
S113010024EB829FC00111246FEF70E00E940F0165
S1130110609300012DE1629FC001112464EB70E043
S11301200E940F01CB01409690930201809301013C
S11301300E940A01EAE7F0E0808180648083FF91F5
S1130140EF91BF91AF919F918F917F916F915F914B
S11301504F913F912F910F900FBE0F901F901895C4
S113016094B1926094B9E0E8F0E090819F73908339
S1130170813021F48081806C808305C0E0E8F0E068
S1130180808180688083E0E8F0E080818260808301
S1130190E1E8F0E08081886180838FE19EE49093C0
S11301A087008093860060347105E1F038F4613093
S11301B0710561F06830710579F026C0611581E040
S11301C07807B1F061157440C9F01EC0E1E8F0E0B1
S11301D08081816080830895E1E8F0E0808182601D
S11301E080830895E1E8F0E080818360808308954E
S11301F0E1E8F0E08081846080830895E1E8F0E044
S11302008081856080830895E1E8F0E080818260E8
S1130210808308959093890080938800089597FBC4
S1130220072E16F4009407D077FD09D00E9423010D
S113023007FC05D03EF4909581959F4F08957095E5
S113024061957F4F0895AA1BBB1B51E107C0AA1FEC
S1130250BB1FA617B70710F0A61BB70B881F991F63
S11302605A95A9F780959095BC01CD010895F8940D
S1050270FFCFBA
S9030000FC
